:1000000010C028C027C026C025C024C023C022C0DD
:1000100021C020C01FC01EC01DC01CC01BC01AC0F4
:1000200019C011241FBECFEDCDBF10E0A0E6B0E097
:10003000ECEDF5E002C005900D92A436B107D9F7BA
:1000400010E0A4E6B0E001C01D92A93BB107E1F7C2
:10005000A1D0C2C2D5CF8FB580688FBD8EB5826169
:100060008EBD80E197E295BD84BDD69A9BBD8ABDC9
:1000700028EC30E0F9013197F1F70197D9F71BBC73
:100080001ABC80E197E228EC30E0F9013197F1F7F2
:100090000197D9F71BBC1ABC84EF91E090936100E3
:1000A000809360000895C09AB89AD5DFD89AD39A01
:1000B000DB9A84EF91E028EC30E0F9013197F1F719
:1000C0000197D9F7DB9884EF91E028EC30E0F90153
:1000D0003197F1F70197D9F7DB9A88EE93E028EC96
:1000E00030E0F9013197F1F70197D9F7DB980895DE
:1000F0009C01845F9140855F914010F080E00895FD
:100100003BBD2ABD81E008951BBC1ABC84EF91E081
:10011000909361008093600008958CEB92E09BBD0A
:100120008ABD80E197E228EC30E0F9013197F1F7E0
:100130000197D9F780E293E09BBD8ABD80E197E209
:1001400028EC30E0F9013197F1F70197D9F784E80D
:1001500093E09BBD8ABD88E893E128EC30E0F9018B
:100160003197F1F70197D9F786EB93E09BBD8ABDF4
:1001700088E893E128EC30E0F9013197F1F7019735
:10018000D9F788EE93E09BBD8ABD90936100809380
:1001900060000895AF92BF92CF92DF92EF92FF92EC
:1001A0000F931F93CF93DF937EDF31E0E32EF12C8B
:1001B00022E0B22E93E0A92E04EF11E0C8ECD0E0CB
:1001C000DD24D3948AE1C82E89B3817080936C00BA
:1001D00080916900813009F470C0813038F082303C
:1001E00009F4D5C0833009F0D2C128C080916A00DB
:1001F00090916B0085369105C0F090916C008091D4
:100200006200981791F010926B0010926A001092A1
:1002100068001092640010926500109266001092BF
:10022000670010926D00A092690080916C00882395
:10023000D1F110926B0010926A00A9C190916C00EC
:1002400080916200981779F0E0916D0080916A00CA
:1002500090916B00F0E0E259FF4F808310926B00A9
:1002600010926A0007C080916A0090916B00893CEF
:10027000910528F080916D008F5F80936D008091D3
:100280006D008A3441F4D092690010926B00109294
:100290006A0010926D0080916A0090916B008F3F10
:1002A000910509F474C180916A0090916B000196E8
:1002B00090936B0080936A006AC110926D00209148
:1002C0006400309165004091660050916700609134
:1002D00068003AC0E0916D00F0E0E259FF4F808184
:1002E0008823B1F1E0916D00F0E0E259FF4F808189
:1002F0008635C0F0E0916D00F0E0E259FF4F80815B
:100300008E3680F4C701062E02C0880F991F0A940A
:10031000E2F7AA2797FDA095BA2F282B392B4A2B55
:100320005B2B0AC0E0916D00F0E0E259FF4F808145
:10033000893210F080916D006F5F603249F08091DA
:100340006D008F5F80936D0080916D008B3410F293
:1003500020936400309365004093660050936700DB
:100360006093680010926D000BC0E0916D00F0E0AA
:10037000E259FF4F108280916D008F5F80936D0076
:1003800080916D008B3488F3B092690000C1809138
:10039000640090916500A0916600B0916700803381
:1003A00020E7920720E0A20720E0B20741F08F305B
:1003B0004CE1940740E0A40740E0B40759F485E518
:1003C000EED08AEAECD01BBC1ABC109361000093FB
:1003D0006000DBC08C3021E6920720E0A20720E01D
:1003E000B20741F0833448E1940740E0A40740E0BD
:1003F000B407D1F480916000909161009C012E5C63
:100400003F4F825C9140855F914030F43BBD2ABDF7
:10041000309361002093600088EE93E0FE013197F5
:10042000F1F70197D9F7B1C0833021E0920720E0BE
:10043000A20720E0B20741F08C3044E0940740E08E
:10044000A40740E0B407D1F480916000909161006E
:100450009C012253304086529240855F914030F497
:100460003BBD2ABD309361002093600088EE93E08D
:10047000FE013197F1F70197D9F787C08C302FE053
:10048000920720E0A20720E0B20741F0833C43E05E
:10049000940740E0A40740E0B40761F485E57FD00D
:1004A0008FEF7DD088EE93E0FE013197F1F7019751
:1004B000D9F76BC0833C9105A105B10541F08C30A3
:1004C00023E0920720E0A20720E0B20771F485E55F
:1004D00066D081EF64D08AEA62D088EE93E0FE01B4
:1004E0003197F1F70197D9F750C0803340E4940772
:1004F00040E0A40740E0B40741F08F3020E19207CC
:1005000020E0A20720E0B20771F485E548D082EF31
:1005100046D08AEA44D088EE93E0FE013197F1F7A5
:100520000197D9F732C083309105A105B10529F0B3
:100530008C309105A105B10571F485E530D082EDCF
:100540002ED08AEA2CD088EE93E0FE013197F1F7A5
:100550000197D9F71AC08C3040E3940740E0A40714
:1005600040E0B40729F083509C40A040B04069F4BB
:1005700085E515D081ED13D08AEA11D088EE93E09D
:10058000FE013197F1F70197D9F710926900809138
:100590006C00809362008C2D8A95F1F715CE282F80
:1005A0008FB7F8949AE0E8B3EE7FE8BB0000000054
:1005B000000000000000EDECF0E03197F1F70000E2
:1005C000E8B320FDE16020FFEE7FE8BB08942795AB
:0C05D0009A9589F78FBF0895F894FFCF2B
:0405DC00F401010025
:00000001FF
