:100000000C942A000C9447000C9447000C94470071
:100010000C9447000C9447000C9447000C94470044
:100020000C9447000C9447000C9447000C94570222
:100030000C9447000C940D020C9447000C9447005C
:100040000C9447000C9447000C9447000C94A102B8
:100050000C94470011241FBECFE5D4E0DEBFCDBF16
:1000600010E0A0E6B0E0EEEFFBE002C005900D92DC
:10007000AE36B107D9F711E0AEE6B0E001C01D928F
:10008000A731B107E1F70E9449000C94FD050C94DB
:1000900000000E9400018FEF90E00E9437020E9452
:1000A0004A010E942D030E9457030E948504A19AD1
:1000B000A99ABF9A84E890E060E043E050E00E9493
:1000C000CD0281E595E061E044E150E00E94CD027F
:1000D00082E061E00E94BB0280E090E00E94890320
:1000E0000E946603813021F40E947803A99808C019
:1000F00080ED97E060E070E048EE53E00E948E03F0
:1001000078940E94E802FDCF0F931F93CF93DF9363
:100110008BE990E00E945301BC01909372008093A0
:100120007100ABE9B0E0C3E6D0E040E050E0E0E0D1
:10013000F0E08D919D91E80FF91F2991332727FD5C
:1001400030958C01209FC001219F900D309F900D14
:100150001124480F591F10E0AF3AB10751F75093DF
:100160007B0040937A00F0937D00E0937C00672B46
:1001700079F4CA01BF010E94A005862F992787FD47
:1001800090959093700080936F006093600009C019
:1001900080916000992787FD9095909370008093DF
:1001A0006F0080916F0090917000909581959F4FA6
:1001B0009093700080936F000E94A5039C01909320
:1001C0007500809374001816190614F0009761F0FA
:1001D0008091610090916200B901680F791F821BC4
:1001E000930B0E942B0107C02091610081E0622FD8
:1001F00041E00E940E01DF91CF911F910F91089570
:1002000080E491E097BD86BD8FB5816A8FBD8EB5C4
:1002100082608EBD81B3886781BB089570E08130B4
:1002200041F4939A8FEF90E0861B970B99BD88BDA0
:1002300003C0939879BD68BD30E0413041F4969A8F
:100240008FEF90E0821B930B9BBD8ABD089596981B
:100250003BBD2ABD08959C011816190634F4939AE3
:100260008FEF90E0821B910903C09398819590E0F5
:1002700099BD88BD1616170634F4969A8FEF90E054
:10028000861B910904C09698862F819590E09BBDAE
:100290008ABD08951ABA87B38C7F87BB8FEF8BBB5B
:1002A00083E088BB08950F931F93182F092F109296
:1002B0007F0010927E009FEF9ABB87B3836087BB5D
:1002C0009BBB88B3836088BB82E48A95F1F71ABA36
:1002D0001BBA87B38C7F87BB88B38C7F88BBAFEAA0
:1002E000B0E0FD011192119220E0E33CF207D1F75A
:1002F00060918100709180003BC079B366B3E3EBFD
:10030000F0E020E030E0472F50E0CA01022E02C0AA
:10031000959587950A94E2F780FF05C080819181C9
:100320000196918380832F5F3F4F329628303105AD
:1003300061F760FF09C08091B1009091B200019611
:100340009093B2008093B10061FF09C08091AF002B
:100350009091B00001969093B0008093AF0080918F
:100360007E0090917F00019690937F0080937E00A5
:1003700080917E0090917F008C52914008F4BDCF17
:100380006093810070938000812F902F9C01F90170
:1003900041E050E08C9111969C9111979C0173E083
:1003A000220F331F7A95E1F7880F991F280F391F05
:1003B00011963C932E93318320838D919C911197BC
:1003C000049710F040E050E01296329680E0A33C93
:1003D000B80701F7CA011F910F91089589B380935F
:1003E000800026B32093810030E0A9014170507055
:1003F000440F551F2270307036952795422B532B92
:1004000090E0880F991F880F991F482B592B509304
:10041000830040938200CA0108951F920F920FB685
:100420000F9211241092C3000F900FBE0F901F90D7
:100430001895AC01F8948091C500823011F080E0ED
:1004400014C020E00AC0E22FF0E0DA01AE0FBF1FB7
:10045000EA53FF4F80818C932F5F8091C40028174F
:1004600090F31092C4001092C500789408951092F1
:10047000C4001092C3001092C50082E08BB988EDD1
:100480008AB986E880BD83E089B981E080BD78942F
:1004900008958CB95D9BFECF0895982F8091C3007D
:1004A000882311F085E008959CB984E008951F9297
:1004B0000F920FB60F9211242F933F934F935F9398
:1004C0006F937F938F939F93AF93BF93EF93FF931C
:1004D00081E062E00E94BB0281E060E041E020E058
:1004E0000E940E0182E08093C5008091C4009CB1FF
:1004F000E82FF0E0EA53FF4F90838F5F8093C400B2
:10050000843110F01092C400FF91EF91BF91AF9130
:100510009F918F917F916F915F914F913F912F911B
:100520000F900FBE0F901F9018958BE083BF12BEE7
:100530001CBEBB9A89B7826089BF08958CBF08959D
:1005400008951F920F920FB60F9211248F939F93CD
:1005500081E08093860080918400909185000196CF
:1005600090938500809384009F918F910F900FBE90
:100570000F901F901895982F613031F48091DA0018
:10058000892B8093DA000895623031F49095809140
:10059000DA0089238093DA0008956930C0F4E62FE9
:1005A000F0E0EE0FFF1FDF01A552BF4F8D939C932C
:1005B000E551FF4F518340838091870090918800DF
:1005C0008417950720F4509388004093870008957E
:1005D000EF92FF920F931F93CF93DF93809186004A
:1005E000813081F53BEEE32E30E0F32E0BED10E091
:1005F000C0E0D0E08091DA0090E00C2E02C095952A
:1006000087950A94E2F780FF0FC080918400909153
:100610008500D7016D917C910E948C05892B21F476
:10062000D801ED91FC9109952196E2E0F0E0EE0E03
:10063000FF1E0E5F1F4FC930D105E1F682E08093A7
:10064000860004C0809186008230E1F3DF91CF9173
:100650001F910F91FF90EF90089580EA92E09093A0
:10066000DC008093DB009093DE008093DD009093AC
:10067000E0008093DF009093E2008093E10090938C
:10068000E4008093E3009093E6008093E50090936C
:10069000E8008093E7009093EA008093E9000E94CD
:1006A00095028AEF0E949E021092DA00089510923D
:1006B0006D0008952091950030919600C90108952C
:1006C0002091930030919400C901089580918B008E
:1006D00090918C008F5F9F4F49F080918D00909199
:1006E0008E008F5F9F4F11F081E0089582E00895A2
:1006F00080918B0090918C00909392008093910058
:1007000080918D0090918E0090939400809393003F
:1007100008959093900080938F0008959093960091
:100720008093950070939200609391005093940091
:1007300040939300089590939400809393000895BC
:10074000909396008093950008956F927F928F9278
:100750009F92AF92BF92CF92DF92EF92FF920F9350
:100760001F9320918F0030919000281B390B3093FC
:1007700000012093FF008091FF00909100012091E3
:10078000FB003091FC00821B930B9093020180933D
:1007900001016090950070909600A090FF00B090CD
:1007A00000012091930030919400609101017091BB
:1007B0000201882777FD8095982F40E050E00E9445
:1007C0006D057B018C01CC24B7FCC094DC2C882403
:1007D0009924C601B501A40193010E946D05E60E9E
:1007E000F71E081F191FE0926E00F0926F00009331
:1007F00070001093710080916E0090916F00A09135
:100800007000B091710080509048A040B0402CF032
:100810008FEF9FE7A0E0B0E011C080916E00909153
:100820006F00A0917000B091710081509048AF4F5F
:10083000BF4F64F481E090E8AFEFBFEF80936E00AC
:1008400090936F00A0937000B093710020916E00A0
:1008500030916F004091700050917100CA01B90150
:10086000E7E0660F771F881F991FEA95D1F7621B93
:10087000730B840B950B2FEF3FE740E050E00E9495
:10088000B305332727FD30953093FE002093FD00FC
:100890008091FF00909100019093FC008093FB00F9
:1008A0002091FD003091FE00C9011F910F91FF9032
:1008B000EF90DF90CF90BF90AF909F908F907F9000
:1008C0006F900895BC01E199FECF82E090E00E9414
:1008D000DB050895BC01E199FECF80E090E00E9425
:1008E000DB050895CF93DF939C01EB01E199FECFE7
:1008F00080E090E0B9010E94DB0582E090E0BE015B
:100900000E94DB05DF91CF910895E199FECF80E051
:1009100090E00E94D50590938C0080938B0082E03C
:1009200090E00E94D50590938E0080938D000895ED
:1009300008951F9310919A00123009F442C01330A9
:1009400030F4112371F0113009F0A9C00FC0143038
:1009500009F46FC0143008F44AC0153009F09FC084
:100960007CC0853509F099C081E028C08A3A69F4D5
:1009700081E062E00E94BB0281E060E041E020E0B3
:100980000E940E011092970087C08F3F39F481E0DA
:1009900061E00E94BB02109397007EC0813F11F47A
:1009A00082E00CC0823F11F483E008C0813D11F465
:1009B00084E004C0823D09F070C085E080939A0015
:1009C0006EC08A3A09F069C00E945A039C01909354
:1009D000990080939800A0E0B0E084589D4FA0401B
:1009E000B0400CF05AC0C9018C599F4F15C08A3ACB
:1009F00009F053C00E945A039C0190939900809380
:100A00009800A0E0B0E085369105A105B1050CF491
:100A100044C0C901845690409093990080939800F7
:100A20000E946A0480919800909199000E94A0030E
:100A300033C08A3A91F50E9460039C01909399001B
:100A400080939800A0E0B0E084589D4FA040B04053
:100A500024F5C9018C599F4F13C08A3AF1F40E94C2
:100A600060039C019093990080939800A0E0B0E00F
:100A700085369105A105B10584F0C90184569040E1
:100A800090939900809398000E946204809198004E
:100A9000909199000E949B03A99810929A001F912F
:100AA00008950F931F93CF93DF93A99A83E091E06A
:100AB0000E941902C3E0D1E0082F10E00C0F1D1FA7
:100AC00004C088810E9499041992C017D107C9F700
:100AD000DF91CF911F910F910895629FD001739F75
:100AE000F001829FE00DF11D649FE00DF11D929FCA
:100AF000F00D839FF00D749FF00D659FF00D992709
:100B0000729FB00DE11DF91F639FB00DE11DF91F2C
:100B1000BD01CF0111240895AA1BBB1B51E107C0E1
:100B2000AA1FBB1FA617B70710F0A61BB70B881F7D
:100B3000991F5A95A9F780959095BC01CD0108950C
:100B400097FB092E07260AD077FD04D0E5DF06D0F3
:100B500000201AF4709561957F4F0895F6F79095EF
:100B600081959F4F0895A1E21A2EAA1BBB1BFD0180
:100B70000DC0AA1FBB1FEE1FFF1FA217B307E4077C
:100B8000F50720F0A21BB30BE40BF50B661F771FD4
:100B9000881F991F1A9469F76095709580959095B4
:100BA0009B01AC01BD01CF010895A8E1B0E042E096
:100BB00050E00C94E2050E94F005272F0C94F105FB
:100BC000DC01CB01FC01E199FECF06C0FFBBEEBB0F
:100BD000E09A31960DB20D9241505040B8F7089509
:100BE000262FE199FECF9FBB8EBB2DBB0FB6F8948D
:0E0BF000E29AE19A0FBE01960895F894FFCFA5
:0E0BFE00045A00CED8E2ECF60A141E28320A81
:00000001FF
